:030000000209FBF7
:0C09FB00787FE4F6D8FD758123020A42E3
:100B120002200000022200001408003F0006005BD1
:0E0B2200004F0066006D007D000700FF0067B9
:100800000209127590FF309603020900E523646324
:1008100045227011E52164634520700975A0677554
:10082000B0670209000521E521700205200523E5D6
:100830002370020522AE20AF217C007D0A120A87B8
:100840008E1C8F1DAE22AF237C007D0A120A878C7E
:100850001E8D1FE51D25E02408F808E6F5A0E51F1C
:1008600025E02408F808E6F5B0E52345227004C227
:1008700080801CD3E5239400E5226480948040139B
:10088000D3E5239419E522648094805006D280C277
:1008900082801ED3E5239419E5226480948040175A
:1008A000D3E5239432E52264809480500AD280D22A
:1008B00082C284C2868046D3E5239432E5226480D6
:1008C00094804017D3E523944BE5226480948050B4
:1008D0000AD280D282D284C2868022D3E523944B6E
:1008E000E522648094804015D3E5239464E5226476
:1008F0008094805008D280D282D284D2863096FDF5
:10090000309703020803E5234522700FE5214520B7
:10091000700975A03F75B03F020803E521152170ED
:10092000021520E523152370021522AE20AF217C8D
:10093000007D0A120A878E1C8F1DAE22AF237C0019
:100940007D0A120A878C1E8D1FE51D25E02408F8FC
:1009500008E6F5A0E51F25E02408F808E6F5B0E56F
:100960002345227004C280801CD3E5239400E52235
:10097000648094804013D3E5239419E52264809425
:10098000805006D280C282801ED3E5239419E522CE
:10099000648094804017D3E5239432E522648094E8
:1009A00080500AD280D282C284C2868046D3E52398
:1009B0009432E522648094804017D3E523944BE57C
:1009C0002264809480500AD280D282D284C28680EF
:1009D00022D3E523944BE522648094804015D3E52F
:1009E000239464E522648094805008D280D282D21D
:0B09F00084D28630970302080380F8D1
:100A0700020800E493A3F8E493A34003F68001F2FD
:100A170008DFF48029E493A3F85407240CC8C333F0
:100A2700C4540F4420C8834004F456800146F6DFBF
:100A3700E4800B0102040810204080900B12E47E32
:100A4700019360BCA3FF543F30E509541FFEE493B4
:100A5700A360010ECF54C025E060A840B8E493A37B
:100A6700FAE493A3F8E493A3C8C582C8CAC583CAA6
:100A7700F0A3C8C582C8CAC583CADFE9DEE780BE5E
:010B300000C4
:100A8700C2D5EC30E709B2D5E4C39DFDE49CFCEE8A
:100A970030E715B2D5E4C39FFFE49EFE120ABDC33B
:100AA700E49DFDE49CFC8003120ABD30D507C3E436
:060AB7009FFFE49EFE22F9
:100ABD00BC000BBE0029EF8DF084FFADF022E4CC1D
:100ACD00F875F008EF2FFFEE33FEEC33FCEE9DECE6
:100ADD00984005FCEE9DFE0FD5F0E9E4CEFD22ED2C
:100AED00F8F5F0EE8420D21CFEADF075F008EF2F76
:100AFD00FFED33FD4007985006D5F0F222C398FD67
:050B0D000FD5F0EA2203
:00000001FF
